:020000040800F2
:10000000101F00206902000871020008012E00087C
:10001000750200087702000879020008000000005D
:100020000000000000000000000000007B0200084B
:100030007D020008000000007F0200086D5D0008DE
:10004000830200088302000883020008830200087C
:10005000830200088302000883020008830200086C
:10006000830200088302000883020008830200085C
:10007000830200088302000883020008830200084C
:1000800083020008830200084B0500088302000871
:10009000830200088302000883020008830200082C
:1000A00075620008B5620008830200088302000838
:1000B000CD6200080000000000000000830200087C
:1000C0008302000883020008830200080000000089
:1000D0008302000883020008096F000883020008F9
:1000E000BD0D000883020008830200080000000024
:1000F0000000000000000000000000000000000000
:100100000000000000000000000000008302000862
:100110000000000000000000830200080000000052
:1001200000000000000000000000000000000000CF
:1001300000000000000000000000000000000000BF
:100140008302000883020008000000000000000095
:10015000000000000000000000000000000000009F
:10016000830200088302000883020008830200085B
:1001700083020008000000000000000000000000F2
:10018000000000008302000800F002F800F05CF8B4
:100190000AA090E8000C82448344AAF10107DA45E2
:1001A00001D100F051F8AFF2090EBAE80F0013F0D8
:1001B000010F18BFFB1A43F0010318472C7500000C
:1001C0004C7500000A444FF0000C10F8013B13F08E
:1001D000070408BF10F8014B1D1108BF10F8015BA0
:1001E000641E05D010F8016B641E01F8016BF9D193
:1001F00013F0080F1EBF10F8014BAD1C0C1B09D1EA
:100200006D1E58BF01F801CBFAD505E014F8016B5B
:1002100001F8016B6D1EF9D59142D6D370470000ED
:100220000023002400250026103A28BF78C1FBD8FF
:10023000520728BF30C148BF0B6070471FB507F099
:1002400017F81FBD10B510BD00F046F91146FFF7B5
:10025000F5FF06F043FF00F064F903B4FFF7F2FF87
:1002600003BC00F06BF900000948804709480047CB
:10027000FEE7FEE7FEE7FEE7FEE7FEE7FEE7FEE756
:10028000FEE7FEE704480549054A064B70470000B3
:100290003D5E00088901000810190020101F002091
:1002A000101B0020101B002053EA020C00F0698094
:1002B0002DE9F04B4FF00006002B1FBFB3FA83F57A
:1002C00003FA05F424FA05F65E4012BF1643B2FAAB
:1002D00082F502FA05F4C5F120051EBF22FA05FCDD
:1002E00044EA0C04203556EA044C4FEA144418BF83
:1002F000641C4FF000084FF00009904271EB030CB2
:1003000039D3002919BFB1FA81F701FA07F6B0FA1B
:1003100080F700FA07F6C7F120071EBF20FA07FC96
:1003200046EA0C062037B6FBF4FCA7EB0507103FA6
:1003300007F01F0BCBF120060CFA0BFB2CFA06F68C
:1003400044BFB3460026202FA4BF5E464FF0000BEB
:100350005BEA060C08BF4FF0010B19EB0B09ABFB76
:10036000027C48EB0608C01B06FB02CC0BFB03CC4F
:1003700071EB0C01C1E70B46024641464846BDE819
:10038000F08B13B54FF000004FF00001AFF3008089
:10039000BDE81C407047032A40F2308010F0030C87
:1003A00000F0158011F8013BBCF1020F624498BFC8
:1003B00011F801CB00F8013B38BF11F8013BA2F165
:1003C000040298BF00F801CB38BF00F8013B11F0E0
:1003D000030300F02580083AC0F0088051F8043B80
:1003E000083A51F804CBA0E80810F5E7121D5CBFED
:1003F00051F8043B40F8043BAFF30080D20724BF20
:1004000011F8013B11F801CB48BF11F8012B24BFB3
:1004100000F8013B00F801CB48BF00F8012B704702
:1004200010B5203AC0F00B80B1E81850203AA0E88F
:100430001850B1E81850A0E81850BFF4F5AF5FEAC3
:10044000027C24BFB1E81850A0E8185044BF18C976
:1004500018C0BDE810405FEA827C24BF51F8043B1D
:1004600040F8043B08BF7047D20728BF31F8023B71
:1004700048BF11F8012B28BF20F8023B48BF00F805
:10048000012B70474FF0000200B513469446964684
:10049000203922BFA0E80C50A0E80C50B1F1200197
:1004A000BFF4F7AF090728BFA0E80C5048BF0CC045
:1004B0005DF804EB890028BF40F8042B08BF7047A3
:1004C00048BF20F8022B11F0804F18BF00F8012B15
:1004D0007047704770477047754600F02BF8AE467E
:1004E00005006946534620F00700854618B020B540
:1004F000FFF7C8FEBDE820404FF000064FF00007B0
:100500004FF000084FF0000B21F00701AC46ACE8BB
:10051000C009ACE8C009ACE8C009ACE8C0098D4628
:10052000704710B50446AFF300802046BDE8104088
:10053000FFF793BE00487047AC180020014918200F
:10054000ABBEFEE72600020070474FF0A0414020FE
:10055000086006F08BB8000070B50446006881683A
:1005600001F0030101292AD10168C90727D0816858
:1005700001F00D01012914D1816841F0020181606F
:1005800021680320086001F04FFB054613E000BF1F
:1005900001F04AFB401B02280DD920688068C00783
:1005A00009D0206C40F010002064606C40F0010025
:1005B0006064012070BD20688068C007E8D1002019
:1005C00070BD2DE9F043C269437F017F03F03F0412
:1005D00090F86C80C2F30219C909C2F386334FF058
:1005E000010CC2F34652884500D3884680F86C80DF
:1005F00090F86D70A74200D3274680F86D7090F890
:100600006E609E4200D31E4680F86E6090F86F5078
:10061000954200D3154680F86F50414509D1BC4240
:1006200007D89E4205D1954203D190F870008145CC
:1006300001D04FF0000C6046BDE8F08370B5044671
:1006400090F865100020012521B1012920D184F8FE
:10065000650036E0E0691C49C2B2C0F307238A5C3A
:100660005A40C0F307438A5C5A408A5C82EA1060B1
:10067000085C08B1042021E0207F00F00F00A06694
:1006800005281ED006281CD0092802D084F8625004
:1006900070BDA08B0009A4F85C0012D0B4F85E1005
:1006A00088420AD894F86C1000EB4102D4E90501A5
:1006B000636D984784F8655070BD022084F862002D
:1006C00070BD84F8615070BD7A75000870B504463D
:1006D00090F824000025032820D0A06C80F8065054
:1006E00094F82E00032602281BD094F82400022838
:1006F00022D072B6606C78B3A0648671606CA36D12
:10070000828801686069984794F8360002281DD0F5
:1007100094F83E00022819D065641FE084F8245044
:10072000DEE704F12800A064A36DA28DA16A6069D0
:10073000984784F82E6070BD04F12001A164A36D78
:1007400004226069984784F8246070BD616CC1EB35
:1007500044006830606401E0FFE7A56462B670BDE4
:1007600030B4002180F86510446900F11C01436D2C
:10077000204630BC042218472DE9F04104460027EA
:10078000C0690F8094F861203D46002A6DD084F83E
:10079000615094F86430012604F16C0823B1012BF8
:1007A00020D0022B5AD134E0A16E052902D00629AF
:1007B00014D053E02046FFF704FFF8B194F86E0020
:1007C00040012030A08194F86F008101E18194F80C
:1007D0006D0040012030A4F85E0027E0C0F30F3226
:1007E00000212DE0A16E052902D0062907D035E0B1
:1007F0002046FFF7E6FE08B984F8645018E0C0F31D
:100800000F320121204600F01BF9022084F8640019
:1008100024E0A26E052A04D0062A0ED0092A13D09D
:100820001CE02046FFF7CDFE0028E5D084F8646088
:100830004146204600F0C4F810E0C0F30F32012119
:10084000204600F0FDF809E094F86000401C84F8B0
:1008500060002674B4F85C000880A769636D042208
:1008600004F11C016069984715E094F8621091B199
:100870000A0242EA014104F1200041F00F01024660
:10088000216204230021204600F008F884F8625019
:10089000216D606988473846BDE8F0812DE9F04157
:1008A0001668154626F070422E4F02F0FF0CC2F378
:1008B000072E17F80CC000248CEA0E0CC2F3074E6A
:1008C00017F80CC08CEA0E0C17F80C7087EA126748
:1008D000254AD25D46EA02722A6072B6826C3AB14B
:1008E00062B6022209291ED00A2928D079B336E03F
:1008F000032209290ED00A2910D080F8242000F103
:100900002001816462B61A464669876D29463046E1
:10091000B84724E0016C8A71016CF2E780F82E2060
:1009200000F12801EDE7016C0E68AE4200D003240F
:10093000456C05B941648A71006C83800FE090F8C2
:100940002E10012907D180F82E20838507E0FFE7CC
:1009500090F8241009B1032401E080F824202046F7
:10096000BDE8F0817A7500087A76000810B5012399
:100970001C460A2A09D090F83620012A0FD990F88F
:100980003E20012A12D9002318E090F82E20012AD7
:10099000F9D8826A121D0A6080F82E400EE080F8B5
:1009A000364000F130020264006B05E080F83E4002
:1009B00000F138020264806B001D0860184610BD0B
:1009C00030B40B79052404EB03130C7800F12002FA
:1009D00043EAC4134C7843EA04238C78C97843EA89
:1009E000843343EA41510162042330BC0021FFF704
:1009F00055BF30B41C4690F86430022B02D0022060
:100A000030BC70470D1F44EA02132B6090F86C3025
:100A1000012B06D1CA238B54FE231144921C4B7028
:100A200092B20A2C03D1017C41B100210174121D44
:100A300093B22A46214630BCFFF730BF0120DFE7E2
:100A4000F0B490F86030062606EB011603F00103BF
:100A500046EA411190F8635041EA831141EAC3111B
:100A6000144605F00F0541EA052141EA043101620F
:100A7000F0BC042300F120020021FFF70FBF10B5E6
:100A800004464069E16C8847002084F8640084F8DB
:100A9000650084F8600004F11C01636D6069BDE8C5
:100AA0001040042218472DE9F041044600880D4605
:100AB0000FB217FB07F30E1416FB06F264884043CF
:100AC000134404FB04F1834216DD8A4207DC801ADA
:100AD00002F046FC002F00DA4042344608E0002EC7
:100AE00000DA6442401A02F03BFC002F00DA404278
:100AF00060F30F0564F31F452846BDE8F081000050
:100B0000054A016811441422B1FBF2F18900016425
:100B10000249C16370470000F8FFFDBF00000240BA
:100B200070B504468089012528B1401E0004000CE0
:100B3000A08102D00025284670BDB4F91400217EA2
:100B400090FBF1F001B2A06800F022F90120A0733F
:100B5000F1E780E80E0000218173C173704710B582
:100B6000044600224068114606F06BFA6068B4F94A
:100B700014100186427891FBF2F2C2808180042138
:100B8000206805F0ECF800221146206805F080F896
:100B9000E28AB4F91210206805F07AF8E08A218A16
:100BA00048434FF47A71B0FBF1F0401CA08110BDB6
:100BB000016A496A826E21F0004151430914C388D9
:100BC000C180427812FB01F212B28280C91A836896
:100BD00009B219448160104670472DE9F0478946F3
:100BE000016A90F87C600024CA6822F00102CA60A1
:100BF0004A6AB0F874702346A0F874400D6805F096
:100C0000100CD50F03D06FF00108C1F81080D1F897
:100C10000C8048F00108C1F80C80791922F00042DC
:100C2000B1F5006F02D9012580F88550856F076FF7
:100C3000BCF1100FA2EB050508D001FB075190F89D
:100C4000845000EB8505A962002108E001FB1751E3
:100C5000F5E700EB8105491CAD6AC9B22C44B142ED
:100C6000F7D3416A90F87C506143046F6C4301D024
:100C700091FBF4F1A9F8001084890C1B4482818156
:100C800090F8841000EB81018C6AB0F86C104C4332
:100C900041784C43016F94FBF1F5C4696C43458B7B
:100CA00094FBF5F4C4814C1E944200D8224682671E
:100CB00090F88410491C80F8841090F8841090F803
:100CC0007C20914201D380F8843090F8851029B1BE
:100CD00080F87D30C2780021027003E0494604F0BC
:100CE00073FF01460846BDE8F087000000210A4670
:100CF00005E000BF00EB8103491CC9B29A6290F87D
:100D00007C308B42F6D8012180F87D10704730F896
:100D1000741F491C018000207047000070B5056AEF
:100D20000446286840F40060286000206862206F54
:100D30004FF0FF31B1FBF0F0A066B4F86C00012178
:100D400000EB8000400060622846D4F8802002F06A
:100D5000A3F810212846D4F8802002F09DF86FF007
:100D600001002861E86840F00100E860286840F070
:100D700001002860002094F87C10024605E000BFC6
:100D800004EB8003401CC0B29A628842F8D370BD65
:100D9000026AC180437813FB01F383804FF6FF732F
:100DA000002903DA494289B2591A00E089B2006F7A
:100DB0004843B0FBF3F050627047000005484FF421
:100DC0000051026812F4005F02D0016006F090B892
:100DD000704700001404014072B6FEE770B572B6A9
:100DE0000A4900EB001201EB4204E56862B694F890
:100DF000201039B9064951F8200004F014FF60832F
:100E000060F30F0572B6E56062B670BDD8060020CB
:100E10002802002010B5044600EB04120F48002100
:100E200000EB42020E48116051609160D160518325
:100E3000C2F81210C2F81610918350F8240002F084
:100E4000AFFF0848002150F8240002F0A9FF06482F
:100E500050F82400BDE8104003F0BAB9D8060020CD
:100E60002C02002030020020CC0300202DE9F84F96
:100E70002B48DFF8B0804FF0000B0068474669460A
:100E80004069B0F90460D8F8000002689047009803
:100E900002F0EAF98246314602F00AFA054638685D
:100EA000214F90F88400012815D00020214660F3DE
:100EB0000F0100BF60F31F411C48FFF7F4FD81469E
:100EC000314602F033FA0446D8F8000090F8841056
:100ED000012914D017E0B7F90C1028B2091A1448E8
:100EE000006802F083FF60F30F041248B7F90E1098
:100EF000A1EB2541006802F079FF2146DAE721469F
:100F000003F055F88346C7F8129000983860C7F888
:100F100004A0BD60C7F81640BE835846BDE8F88FF0
:100F200028020020CC030020D80600202402002044
:100F30002C0200203002002010B5044603F06CFFA4
:100F400003F032FF0648FFF733FEFFF78FFF01285B
:100F500004D100220121034802F009F9204610BD06
:100F60006C0200203C02002070B529492748086027
:100F700003F0E0FA274802F009FF2748FFF7CEFE0A
:100F8000264C254B264A27482168FFF7E2FD2649D3
:100F900024480860254802F0F9FE1F4B244A2349E3
:100FA000244804F0EBFF1C4A1A49206804F0C7FEED
:100FB000214802F0EBFE214802F0E8FE21482049DA
:100FC000214D0068C0E9025121492048086003F022
:100FD000C3FF0020FFF71EFF206804F04DFE012034
:100FE00085F82000206804F09CFEE860206804F08A
:100FF00098FE00142882206804F09EFEBDE8704030
:1010000001460022134802F08FB800006C01002056
:10101000CC030020140000206C02002028020020D5
:1010200010030020F4020020C803002098000020D4
:1010300034010020C4000020400000206C0000208B
:101040008003002034020020D80600200C0200207B
:10105000680200203C02002070470000F0B5002329
:1010600094B01D46009390F83C4002691E46012C46
:101070000BD00124E74F80F83C404AB18A69012A2D
:1010800006D0C66C46B3826C37E0022014B0F0BDC7
:101090004A68012A05D0026C42F020020264012352
:1010A0004BE00A6A012A09D0D1F824C042EA0C02B6
:1010B000D1F800C046EA0C26324302E00A6846EA4C
:1010C00002220668D6F84CC00CEA070C4CEA020C67
:1010D000C6F84CC0826430E0C0E912520A6A012AA4
:1010E00008D0D1F818C04E6AACF1010C46EA0C06E3
:1010F000324301E08A69521E82640E7906EB460C87
:10110000022606EB4C064FF01F0C0CFA06FC22EAF6
:101110000C02D1F800C00CFA06FC42EA0C02826410
:10112000C66C761EC66408D10668D6F84CC00CEAB8
:10113000070C4CEA020CC6F84CC0026896683607E9
:101140001CD44E7F56B1D6688F7F26F4401646EAEF
:101150004756D6600A7F012A0BD00FE08E7F0F7FA3
:10116000760546EA0756D76827F440173E43D6600F
:1011700004E0026C42F02002026401230668B268B7
:1011800012F00C0F4FF007027ED10F6A012FF768A3
:1011900027F0007704D0F7604E7F012E06D00AE0DA
:1011A00091F81DC047EA4C67F76004E0036C43F018
:1011B0002003036401230E6807680A2E11D3D7F8B1
:1011C00018C00A3E06EB460602FA06FE2CEA0E0C92
:1011D000D1F808E00EFA06FE4CEA0E0CC7F818C06B
:1011E0000FE0D7F814C006EB460602FA06FE2CEA1A
:1011F0000E0CD1F808E00EFA06FE4CEA0E0CC7F809
:1012000014C006684F69D6F80CC0D1F810E0CCF3D2
:10121000C10C4FEA4C0C07FA0CF7DFF8FCC1BEF129
:10122000010F44D0BEF1020F4FD0BEF1030F5AD0D0
:10123000BEF1040F65D0376E91F800C007F0F84793
:10124000B7EB8C6F03D1376E27F00047376606681F
:10125000776E91F800C007F0F847B7EB8C6F03D1B9
:10126000776E27F0004777660668B76E91F800C082
:1012700007F0F847B7EB8C6F03D1B76E27F0004744
:10128000B7660668F76E00E00AE091F800C007F064
:10129000F847B7EB8C6F03D1F76E27F00047F7667E
:1012A0000668B76807F00307012F3AD136E0D6F891
:1012B00060E00EEA0C0E91F800C047EA8C674EEA37
:1012C000070E4EF000473766EAE7D6F864E00EEA0C
:1012D0000C0E91F800C047EA8C674EEA070E4EF0FC
:1012E00000477766DCE7D6F868E00EEA0C0E91F866
:1012F00000C047EA8C674EEA070E4EF00047B7661B
:10130000CEE7D6F86CE00EEA0C0E91F800C047EA82
:101310008C674EEA070E4EF00047C0E73768FF07BC
:101320004CD1CF68012F06D056F8B02F0F78BC40B3
:10133000A243326020E056F8B07F91F800C004FA72
:101340000CF4274337600C6807680A2C0AD3BE697F
:10135000093C04EB4404A24096438A68A240164329
:10136000BE6109E07E69641C04EB4404A24096431C
:101370008A68A24016437E610968284A102904D071
:10138000112905D0122906D018E09468240204E03F
:101390009468E40101E094686402002C0EDB00957F
:1013A0000468A66806F00306012E0BD12668F6072E
:1013B00008D0016C41F020010164012380F83C5009
:1013C000184663E64FF0A046102908D011291AD01C
:1013D0001229F3D1916841F480019160EEE7B442A3
:1013E000ECD1916841F4000191600D490D4A096802
:1013F000B1FBF2F101EB8101490000E0491E0091CF
:101400000029FBD1DAE7B442D8D1916841F080716C
:10141000E3E700000020088200F0FF830003005093
:10142000D804002040420F00F0B594B0002500958C
:1014300090F83C202E46012A19D0012780F83C70F4
:1014400003689A6852077DD44A681F24052A11D27E
:10145000D3F830C002EB4202520094402CEA040C54
:101460000C6894404CEA040CC3F830C035E002200C
:1014700014B0F0BD0A2A0FD2D3F834C0521F02EBC9
:101480004202520094402CEA040C0C6894404CEA4E
:10149000040CC3F834C020E00F2A0FD2D3F838C0B0
:1014A0000A3A02EB4202520094402CEA040C0C6807
:1014B00094404CEA040CC3F838C00EE0D3F83CC0AA
:1014C0000F3A02EB4202520094402CEA040C0C68E2
:1014D00094404CEA040CC3F83CC00268936813F0D3
:1014E0000C0F4FF0070373D10C680A2C11D3D2F8FC
:1014F00018C00A3C04EB440403FA04FE2CEA0E0C68
:10150000D1F808E00EFA04FE4CEA0E0CC2F818C03E
:101510000FE0D2F814C004EB440403FA04FE2CEAF2
:101520000E0CD1F808E00EFA04FE4CEA0E0CC2F8DC
:1015300014C002684C69D2F80CC0CCF3C10C4FEA5D
:101540004C0C00E0CDE004FA0CF4D1F810E0DFF828
:10155000F4C1BEF1010F42D0BEF1020F4DD0BEF179
:10156000030F58D0BEF1040F63D0146E91F800C081
:1015700004F0F844B4EB8C6F03D1146E24F00044F3
:1015800014660268546E91F800C004F0F844B4EB9D
:101590008C6F03D1546E24F0004454660268946E3C
:1015A00091F800C004F0F844B4EB8C6F03D1946E52
:1015B00024F0004494660268D46E91F800C004F0F0
:1015C000F844B4EB8C6F03D1D46E24F00044D4669D
:1015D0000268946804F00304012C3AD136E0D2F892
:1015E00060E00EEA0C0E91F800C044EA8C644EEA0A
:1015F000040E4EF000441466EAE7D2F864E00EEA06
:101600000C0E91F800C044EA8C644EEA040E4EF0D1
:1016100000445466DCE7D2F868E00EEA0C0E91F85C
:1016200000C044EA8C644EEA040E4EF00044946616
:10163000CEE7D2F86CE00EEA0C0E91F800C044EA56
:101640008C644EEA040E4EF00044C0E71468E407D0
:101650004CD1CC68012C06D052F8B03F0C78A74092
:10166000BB43136020E052F8B04F91F800C007FA76
:101670000CF73C4314600A6804680A2A0AD3A76975
:10168000093A02EB420293409F438B6893401F4309
:10169000A76109E06769521C02EB420293409F4335
:1016A0008B6893401F4367610968274A102904D05B
:1016B000112905D0122906D018E093681B0204E016
:1016C0009368DB0101E093685B02002B0EDB009660
:1016D00003689C6804F00304012C0BD11C68E40728
:1016E00008D0016C41F020010164012580F83C60C4
:1016F0002846BDE64FF0A044102908D011291AD081
:101700001229F3D1916841F480019160EEE7A34280
:10171000ECD1916841F4000191600C490C4A0968D0
:10172000B1FBF2F101EB8101490000E0491E00919B
:101730000029FBD1DAE7A342D8D1916841F080714A
:10174000E3E7000000F0FF8300030050D80400200E
:1017500040420F00F0B54FF0000695B00400374648
:101760003546009605D0206CC00648D4206C18B1D0
:1017700033E0012015B0F0BD6564E564A56484F82C
:101780003C50204600F0C6F820688068C00024D491
:101790002046FEF7E1FE0646206CC0061DD4E6B9E1
:1017A000206C20F4885040F002002064206881689A
:1017B00021F0405181602068816841F08051816052
:1017C0004F4850490068B0FBF1F000EB800040004A
:1017D00000E0401E00900028FBD120688168C9000D
:1017E00002D5806880000AD5206C20F0020040F00D
:1017F00010002064606C40F0010060640126206CE1
:10180000C00673D4002E71D12168886840076DD45A
:10181000206C20F4807040F00200206400953A486B
:101820008A6802F00302012A02D10968C90705D1BA
:101830008168626821F4403111438160D4E902106B
:101840000843616B012902D04FF4805200E000226E
:10185000617E42EA4132104394F820203843012A45
:101860000AD1A9B1216C21F0020141F020012164CB
:10187000616C41F001016164A16A012902D0E26A50
:101880001143084321688A6812F00C0F08D013E056
:10189000A18C1E4A02EB4141014341F48030EBE749
:1018A000CA6844F202039A43CA60217E94F8302049
:1018B000890341EA420108432168CA68144B1A406F
:1018C0000243CA60206901282068016B21F00F01E2
:1018D00002D1E269521E114301636564206C20F05D
:1018E000020040F00100206407E0FFE7206C20F0D8
:1018F000020040F010002064012630463AE7000064
:10190000D804002040420F00000300500000FEFFFA
:1019100007C0F0FF30B587B0044614216846FEF7D3
:10192000B1FD2068B0F1A04F38D11D48416941F0A8
:1019300080514161416901F080510591416941F453
:1019400000214161416901F400210591416941F49F
:1019500000314161416901F400310591416941F46F
:10196000802141614069032400F480200590072014
:1019700000258DE8310069460A4800F03FF80094E0
:1019800069464FF09040CDE9014500F037F802205C
:101990008DE831006946044800F030F807B030BDEA
:1019A00000100240000800480004004870B5040020
:1019B00021D0022084F821002268116843F6F070DB
:1019C0008143D4E901031843D4E903352B43184379
:1019D00063691843A3691843E36918430843106017
:1019E0002046FFF78DF80020A063012184F8211024
:1019F00084F8200070BD012070BD00002DE9F04F7B
:101A0000DFF80092002301260325A9F1040B85B01D
:101A10000F2709F1040AABF1040EEAE006FA03F419
:101A200022407CD091F804C00CF0030CBCF1010FF3
:101A300002D0BCF1020F26D1D0F808C0CDF800C00A
:101A40004FEA430C05FA0CF8CDF810C0DDF800C0E1
:101A50002CEA080CCDF800C0D1F80C80DDF810C0DD
:101A600008FA0CF8DDF800C048EA0C08C0F8088055
:101A7000D0F804C02CEA040C0C79C4F300149C4088
:101A800044EA0C0444600C79E443A4070DD0D0F878
:101A90000CC04FEA430805FA08F42CEA040C8C68E1
:101AA00004FA08F444EA0C04C4600C7904F003045A
:101AB000022C19D1DC0800EB84040294246A4FEA5A
:101AC000437C4FEADC6CCDF810C007FA0CFC24EA2A
:101AD0000C04D1F81080DDF810C008FA0CF848EAC0
:101AE0000408029CC4F8208004684FEA430805FA01
:101AF00008FC24EA0C0491F804C00CF0030C0CFA66
:101B000008FC4CEA040CC0F800C04C6814F4403FD8
:101B10006ED03D4CD4F818C04CF0010C00E067E0EA
:101B2000C4F818C0A46923F0030C04F00104009465
:101B3000364C64440294A4684FEA837C4FEA1C78D4
:101B400007FA08FC24EA0C04B0F1904F06D0DFF845
:101B5000C0C0604505D14FF0010C12E04FF0000C01
:101B60000FE0DFF8B0C0604502D14FF0020C08E092
:101B7000DFF8A4C0604502D14FF0030C01E04FF044
:101B8000050C0CFA08FC4CEA040C029CC4F808C0D2
:101B9000D9F80040CC46D1F8048094435FEAC828C5
:101BA00000D51443CCF80040DAF80040D446D1F810
:101BB000048094435FEA882800D51443CCF80040A1
:101BC000DBF80040DC46D1F8048094435FEA8838B3
:101BD00000D51443CCF80040DEF80040F446D1F8BC
:101BE000048094435FEAC83800D51443CCF8004021
:101BF0005B1C0A6832FA03F47FF410AF05B0BDE84D
:101C0000F08F000008040140001002400000014075
:101C10000004004800080048000C00480AB1816137
:101C2000704781627047000001488068704700007B
:101C3000CC0400200248816802781144816070471A
:101C4000CC040020074810B5016841F01001016084
:101C5000032000F06FF8042000F006F800F024F8EC
:101C6000002010BD0020024070B50D4D04464FF419
:101C70007A712878B1FBF0F00A490968B1FBF0F0FD
:101C800000F069FD48B9102C07D200222146501EF1
:101C900000F030F800206C6070BD012070BD0000C5
:101CA000CC040020D80400200A4882B0816941F0A9
:101CB00001018161816901F001010091C16941F077
:101CC0008051C161C06900F080500090042002B0D2
:101CD00000F030B800100240002809DB00F01F02BD
:101CE000012191404009800000F1E020C0F800117E
:101CF00070470000F0B40E4B1B680C46C3F3022380
:101D0000C3F10705042D00D90425191D072901D2A7
:101D1000002300E0DB1E012606FA05F1491E2140E2
:101D200099409E40761E16403143F0BC05F0C6B97E
:101D30000CED00E0064900F0070208684FF6FF03CB
:101D4000184040EA0220034A104308607047000030
:101D50000CED00E00000FA05BFF34F8F0548016865
:101D6000054A01F4E06111430160BFF34F8F00BFEA
:101D7000FDE700000CED00E00400FA052DE9F84F46
:101D8000054600680026774CC0036ED5E069C000A8
:101D900008D4E06940F08050E061E069012600F07D
:101DA0008050009070480168C90512D401688046CF
:101DB00041F480710160FFF737FF074605E000BF7F
:101DC000FFF732FFC01B642835D8D8F80000C005E3
:101DD000F6D5206A10F4407053D0A98801F4407100
:101DE00081424ED0206A4FF4803191FAA1F2B2FACA
:101DF00082F297005D4A4FF00108174420F44070CA
:101E0000C7F8008491FAA1F1B1FA81F102EB8101E6
:101E10000023C1F800342062C00732D0FFF704FF6E
:101E2000074641F2883A4FF0020907E0FFF7FCFE4F
:101E3000C11B514502D90320BDE8F88F99FAA9F1D9
:101E4000B1FA81F141F040014846B8EB511F01D190
:101E500021680CE090FAA0F1B1FA81F141F0400163
:101E6000B0EB511F02D1216A01E015E0616A99FAD5
:101E7000A9F0B0FA80F000F01F0008FA00F2114259
:101E8000D4D0206A696820F44070084320621EB1F3
:101E9000E06920F08050E0612878C00705D0206B11
:101EA000A96820F00300084320632878800605D540
:101EB000206BE96820F01000084320632868800345
:101EC00005D56068296B20F480000843606028789D
:101ED000400605D5206B296920F0200008432063C7
:101EE0002888000405D5206B696920F0400008436C
:101EF00020632888800505D56068E96920F4000022
:101F0000084360602878000605D5E06AA96920F4D6
:101F1000F8700843E0622888C00405D5206B296A60
:101F200020F48070084320632868400305D5206BA7
:101F3000696A20F48060084320632868000305D59F
:101F4000206BA96A20F40060084320632868C0025F
:101F500005D5206BE96A20F4005008432063002077
:101F60006AE700000010024000700040000042429A
:101F70002DE9F0470F46050069D04A4E306800F061
:101F80000700B84209D2306820F0070038433060BB
:101F9000306800F00700B84259D12878424C8007D9
:101FA00005D56068A96820F0F000084360602878D3
:101FB000C0073DD06968012001290DD0022923D036
:101FC0005FF0020393FAA3F2B2FA82F242F0200227
:101FD000520904D0226803E04FF40033F2E7626A4A
:101FE00093FAA3F3B3FA83F303F01F03984002427A
:101FF0002DD0606820F0030008436060FFF714FEF6
:10200000804641F288390CE04FF00073DAE700BFF8
:10201000FFF70AFEA0EB0801494502D90320BDE8FD
:10202000F0876068696800F00C00B0EB810FEFD1B9
:10203000306800F00700B8420BD9306820F0070084
:1020400038433060306800F00700B84201D001200A
:10205000E5E72878400705D56068E96820F4E06086
:10206000084360602878000706D56068296920F475
:10207000605040EAC100606000F060F86168F022E2
:1020800092FAA2F201F0F001B2FA82F2D140074ACC
:10209000515CC8400649086006480068FFF7E4FD47
:1020A0000020BCE70020024000100240AA76000891
:1020B000D8040020D00400200120C10491FAA1F12D
:1020C000024AB1FA81F142F8210070470000424211
:1020D0000148006870470000D804002008480949FA
:1020E000006849684FF4E06292FAA2F201F4E061FC
:1020F000B2FA82F2D140044A515CC84070470000F5
:10210000D804002000100240BA76000808480949A7
:10211000006849684FF4605292FAA2F201F46051EB
:10212000B2FA82F2D140044A515CC84070470000C4
:10213000D804002000100240BA7600080F4A10B5FB
:1021400051680F4801F00C03042B12D0082B10D15A
:102150000C4BC1F38344D26A1C5D02F00F021033B2
:10216000C9039A5C06D500231946FEF79DF8A0FB2B
:10217000040110BD0448A4FB000110BD0010024082
:1021800000127A008A76000800093D002DE9F84F18
:10219000050071D02878FC4EC0074FF0010425D00F
:1021A00070686704C0F38100012807D07068C0F32D
:1021B000810002281BD17068C00318D597FAA7F0D8
:1021C000B0FA80F040F02000400901D0306800E013
:1021D000706A97FAA7F1B1FA81F101F01F0104FAD0
:1021E00001F1084265D068680028D2D061E06868D3
:1021F000B0F5803F0BD010B1B0F5A02F17D03068EC
:1022000020F480303060306820F4802002E03068B4
:1022100040F480303060F06AA96820F00F00084375
:10222000F062686820B3FFF7FFFC80460AE0306880
:1022300040F480203060EAE7FFF7F6FCA0EB0800EE
:10224000642871D897FAA7F0B0FA80F040F0200027
:10225000400901D0306800E0706A97FAA7F1B1FA3E
:1022600081F101F01F0104FA01F10842E4D020E0FD
:10227000FFF7DAFC804607E0C2E000BFFFF7D4FCBE
:10228000A0EB08006428DCD897FAA7F0B0FA80F039
:1022900040F02000400901D0306800E0706A97FAF1
:1022A000A7F1B1FA81F101F01F0104FA01F108422E
:1022B000E4D12878DFF8D48280074FF0000A4FF08D
:1022C000020730D570684FF0F80B10F00C0F07D0F4
:1022D0007068C0F38100022827D17068C00324D43D
:1022E00097FAA7F0B0FA80F040F02000400901D042
:1022F000306800E0706A97FAA7F1B1FA81F101F055
:102300001F0104FA01F1084202D02869012877D19F
:1023100030689BFAABF220F0F8016869B2FA82F2F9
:102320009040014331605AE064E1286988B394FA2F
:10233000A4F0B0FA80F048F82040FFF775FC814621
:1023400006E000BFFFF770FCA0EB090002289AD856
:1023500097FAA7F0B0FA80F040F02000400901D0D1
:10236000306800E0706A97FAA7F1B1FA81F101F0E4
:102370001F0104FA01F10842E4D030689BFAABF285
:102380006969B2FA82F220F0F800914008433060A7
:1023900025E0FFE794FAA4F0B0FA80F048F820A016
:1023A000FFF742FC814605E0FFF73EFCA0EB090089
:1023B0000228CCD897FAA7F0B0FA80F040F02000BD
:1023C000400901D0306800E0706A97FAA7F1B1FACD
:1023D00081F101F01F0104FA01F10842E4D12878EB
:1023E00000076CD5A869A8B394FAA4F0B0FA80F0FD
:1023F00008EB8000C0F88044FFF716FC814607E038
:10240000A4E100BFFFF710FCA0EB090002289ED852
:1024100097FAA7F0B0FA80F040F06000B4EB501FDC
:1024200001D130680BE097FAA7F0B0FA80F040F0E5
:102430006000B7EB501F01D1306A00E0706A97FA74
:10244000A7F1B1FA81F101F01F0104FA01F2104283
:10245000D8D034E0FFE794FAA4F1B1FA81F108EBA7
:102460008101C1F880A4FFF7DFFB814606E000BFD1
:10247000FFF7DAFBA0EB090002289AD897FAA7F039
:10248000B0FA80F040F06000B4EB501F01D130682A
:102490000BE097FAA7F0B0FA80F040F06000B7EBDD
:1024A000501F01D1306A00E0706A97FAA7F1B1FAC3
:1024B00081F101F01F0104FA01F21042D8D128780D
:1024C000400768D5F0694FF00009C00009D4F069F1
:1024D00040F08050F061F0694FF0010900F0805049
:1024E00000902B480168C90512D4016841F480713D
:1024F0000160FFF799FB834606E000BFFFF794FBFE
:10250000A0EB0B00642875D821480068C005F5D5FC
:10251000E86801280AD008B1052811D0306A20F0F7
:1025200001003062306A20F0040002E0306A40F0BE
:1025300001003062E86868B3FFF776FB83460DE080
:10254000306A40F004003062F0E700BFFFF76CFB38
:10255000A0EB0B0141F2883081424BD897FAA7F0EB
:10256000B0FA80F040F04000B4EB501F01D1306869
:1025700013E097FAA7F0B0FA80F040F04000B7EB14
:10258000501F09D1306A08E00010024000004242AA
:10259000007000400CE040E0706A97FAA7F1B1FAD1
:1025A00081F101F01F0104FA01F21042CED02DE0BA
:1025B000FFF73AFB834607E0FFF736FBA0EB0B0182
:1025C00041F28830814215D897FAA7F0B0FA80F02E
:1025D00040F04000B4EB501F01D130680CE097FA96
:1025E000A7F0B0FA80F040F04000B7EB501F02D1E6
:1025F000306A01E083E0706A97FAA7F1B1FA81F1DD
:1026000001F01F0104FA01F21042D5D1B9F1000F17
:1026100003D0F06920F08050F061E86980B3716800
:10262000C1F38101022977D04FF080714F00022859
:10263000504609D091FAA1F1B1FA81F148F8210090
:10264000FFF7F2FA05465DE0894691FAA1F1B1FA89
:1026500081F1C24648F82100FFF7E6FA804605E01E
:10266000FFF7E2FAA0EB0800022848D897FAA7F093
:10267000B0FA80F040F02000400902D0306801E05C
:1026800066E0706A97FAA7F1B1FA81F101F01F01D3
:1026900004FA01F10842E3D1D5E908100843716852
:1026A00021F474110843706099FAA9F0B0FA80F02F
:1026B0004AF82040FFF7B8FA054604E0FFF7B4FAFD
:1026C000401B02281BD897FAA7F0B0FA80F040F020
:1026D0002000400901D0306800E0706A97FAA7F145
:1026E000B1FA81F101F01F0104FA01F10842E5D0CD
:1026F0002EE000BFFFF798FA401B022802D9032002
:10270000BDE8F88F97FAA7F0B0FA80F040F020000B
:10271000400902D0306801E00BE0706A97FAA7F137
:10272000B1FA81F101F01F0104FA01F10842E1D18F
:102730000EE00128E4D070682A6A00F480319142EA
:1027400004D1696A00F47010884201D00120D7E7F3
:102750000020D5E7704710B5401EB0F1807F01D34F
:10276000012010BD4FF0E02460610F21601704F0DC
:10277000A5FC0020A06107202061002010BD10B53D
:10278000FFF7E8FF10BD000030B590F83C20012AAB
:1027900037D0012280F83C20CA688C6822F440724D
:1027A00022434C6822F4806222430C6822F40062C7
:1027B00022430C6922F4805222434C6922F40052D5
:1027C00022438C6A22F4804222430C8B22F4702232
:1027D00042EA04420C4D04680023AC420CD18D8CBB
:1027E00022F4700242EA0552CD6922F080722A4337
:1027F000096A22F000720A43626480F83C300020CB
:1028000030BD022030BD0000002C0140F0B590F832
:102810003C20012A29D0012480F83C40022280F883
:102820003D2003685A689D68114EB34203D122F4DB
:1028300070074A683A4322F070070A683A435A60C0
:102840000268B24205D0B2F1804F02D0094B9A42E1
:1028500004D1896825F080031943916080F83D40D8
:10286000002180F83C100846F0BD0220F0BD0000B9
:10287000002C0140004001402DE9F0410D460400CC
:1028800003D094F83D0018B108E00120BDE8F081C4
:10289000002084F83C00204600F042F8022084F832
:1028A0003D00206881681D4A11408160211D20681B
:1028B00003F020FD226890689169166A2B68AF6961
:1028C000034340F20330814341EA0721A868EF69DE
:1028D00008434FF6FC418843E96840EA072001437A
:1028E00028692F6A000140EA0730084369686D696A
:1028F00026F0AA0646EA05152943936022689061EE
:1029000054F8480B0162012004F81F096075A07596
:10291000E076207720750020B8E70000F8BFFEFFC2
:1029200070B586B0044614216846FDF7ABFD2068FB
:10293000B0F1804F31D11A48C16941F00101C16144
:10294000C16901F001010591416941F40031416122
:10295000416901F400310591416941F480214161EF
:102960004069022500F4802005904FF4004000905B
:102970000024CDE901540126CDE9034669464FF014
:102980009040FFF73BF808200090CDE90154CDE9D5
:10299000034669460348FFF731F806B070BD0000F2
:1029A000001002400004004810B586B0044614210F
:1029B0006846FDF767FD0F492068884217D10E4829
:1029C000416941F4003141614069694600F40030D9
:1029D00005904FF4E06000900220019002900320E7
:1029E0000390062004904FF09040FFF707F806B0E0
:1029F00010BD0000002C01400010024070B50446DC
:102A000090F83C0000260D4601280BD0012084F8E8
:102A10003C000C2A4AD007DC82B1042A20D0082AC4
:102A200006D131E0022070BD102A53D0142A63D0A1
:102A30000126002084F83C00304670BD206803F079
:102A40009DFC2068816941F00801816120688169ED
:102A500021F004018161206881692A69114311E034
:102A6000206803F0CFFC2068816941F40061816136
:102A70002068816921F480618161206881692A6907
:102A800041EA02218161D4E7206803F0FBFC206861
:102A9000C16941F00801C1612068C16921F00401E8
:102AA000C1612068C1692A69114311E0206803F0FF
:102AB00029FD2068C16941F40061C1612068C169D4
:102AC00021F48061C1612068C1692A6941EA02215B
:102AD000C161AEE7206803F04BFD2068416D41F015
:102AE000080141652068416D21F0040141652068BD
:102AF000416D2A69114311E0206803F06BFD2068E5
:102B0000416D41F4006141652068416D21F48061AF
:102B100041652068416D2A6941EA0221416588E7E3
:102B200010B5040003D094F83D0010B107E0012077
:102B300010BD002084F83C00204600F023F802205D
:102B400084F83D00211D206803F0D4FB012084F8A7
:102B5000480084F83E0084F83F0084F8400084F880
:102B6000410084F8420084F8430084F8440084F86B
:102B7000450084F8460084F8470084F83D000020B2
:102B800010BD000010B586B0044614216846FDF75C
:102B900079FC13492068884220D11248816941F4A8
:102BA00000618161816901F400610591416941F42D
:102BB000003141614069694600F4003005904FF4EE
:102BC00000600090022001900120029000200390FC
:102BD0000C2004904FF09040FEF710FF06B010BD9F
:102BE000002C01400010024010B5040002D0E06F3C
:102BF00010B107E0012010BD002084F878002046C5
:102C000000F026F82420E0672068016821F0010127
:102C10000160606A10B1204603F000FF204603F017
:102C2000DBFF0128E7D02068416821F49041416032
:102C30002068816821F02A0181602068016841F0E4
:102C4000010101602046BDE8104003F04BBF0000C9
:102C5000F0B587B0064614216846FDF713FC2549F8
:102C60003068884244D12448C16941F40031C161CF
:102C7000C16901F400310591416941F400314161BC
:102C80004069002400F4003005900C2000900220E0
:102C9000CDE901040720CDE9034069464FF090409B
:102CA000FEF7ACFE164D15488027C5E90004C5E9BE
:102CB00002472C616C61AC612846EC61FEF776FE40
:102CC00008B1FEF789F875676E620C480D4D143037
:102CD00001C5102091C50B4845F810496C61AC61E5
:102CE000EC61FEF763FE08B1FEF776F835676E62B9
:102CF00007B0F0BD00440040001002406C000240EC
:102D00005006002094060020C0F3C200C00008282E
:102D100005D0102805D0182805D0002070470120C4
:102D2000704702207047042070470000024610B52B
:102D300022F00703C2F3C2020020D2002C4C102A5A
:102D400036D12C4AB3F5196F126A40D017DCB3F5AF
:102D5000096F34D009DCB3F5FA6F2CD0B3F5016FED
:102D60002BD0B3F5056F23D140E0B3F50D6F28D01C
:102D7000B3F5116F27D0B3F5156F19D125E0B3F571
:102D8000296F2ED009DCB3F51D6F24D0B3F5216F68
:102D900023D0B3F5256F0BD121E0B3F52D6F24D0EF
:102DA000B3F5316F1FD003F54C73B3F5005F10D04E
:102DB00005200C6010BD0A6010BD921CFBE7921D3F
:102DC000F9E70832F7E70A32F5E70C32F3E70E329B
:102DD000F1E7094A0AE01232EDE71432EBE7163266
:102DE000E9E71832E7E7054AEFE7044A121DE2E790
:102DF000B80400203C020020100300206C020020D8
:102E000003F026FCFEE7006C4FF6F07108407047B7
:102E100010B54FF4407494FAA4F401F44073B4FA7A
:102E200084F4E34000EB8300036B01F01F011F24D7
:102E30008C40C2F38462A3438A401343036310BDF2
:102E4000002804D089000222091F8A40426070478E
:102E5000044A114411F8011C425842F00102425048
:102E600070470000DC740008054B001D194411F880
:102E7000011C0B586FF30F0313430B5070470000F6
:102E8000DC74000808B541F48032C261C161C261DE
:102E9000C069009008BD000010B5012922D00429A6
:102EA00022D0102922D0402922D0B1F5807F21D014
:102EB000B1F5806F20D0B1F5805F1FD0B1F5803FB4
:102EC0001ED008210F4B18305B5C184403680D4C72
:102ED0000934615CF0248C40120CA3438A401343F4
:102EE000036010BD0021EDE70121EBE70221E9E7D6
:102EF0000321E7E70421E5E70521E3E70621E1E710
:102F00000721DFE7C276000801291FD004291FD05E
:102F100010291FD040291FD0B1F5807F1ED0B1F5F8
:102F2000806F1DD0B1F5805F1CD0B1F5803F1BD004
:102F300008210E4A1830525C104402680B4B0933CA
:102F40005B5C082199408A43026070470021F0E7EA
:102F50000121EEE70221ECE70321EAE70421E8E79B
:102F60000521E6E70621E4E70721E2E7D476000839
:102F700001291FD004291FD010291FD040291FD09C
:102F8000B1F5807F1ED0B1F5806F1DD0B1F5805FA7
:102F90001CD0B1F5803F1BD008210E4A1830525C7E
:102FA000104402680B4B09335B5C082199400A43CB
:102FB000026070470021F0E70121EEE70221ECE713
:102FC0000321EAE70421E8E70521E6E70621E4E733
:102FD0000721E2E7D476000810B5012921D00429A1
:102FE00021D0102921D0402921D0B1F5807F20D0D7
:102FF000B1F5806F1FD0B1F5805F1ED0B1F5803F75
:103000001DD008210F4B18305B5C184403680D4C31
:103010000934615C0C4C8C40A3438A401343036029
:1030200010BD0021EEE70121ECE70221EAE70321D0
:10303000E8E70421E6E70521E4E70621E2E70721C6
:10304000E0E70000D47600087300010010B50446E4
:10305000C06902F066FE216AC86010BD10B5044662
:10306000807901282DD1E1790020012904D002299D
:103070000DD0032923D119E0216A81F82000032112
:10308000E06902F06CFE228BB4F9141009E0216AA9
:1030900081F820000421E06902F061FE228BB4F97E
:1030A0001610E06902F0F4FD38B908E0216A012049
:1030B00081F82000206A616AC160022000E00320DC
:1030C000A07110BD10B504462DED028B0020216AC1
:1030D000B0EE608AF0EE408A81F82000E069406935
:1030E00002F06DFD00EE100A9FED0E1AB5EEC08ADB
:1030F000F8EEC00A80EE810AF1EE10FA07DD78EEF4
:10310000C00AB0EE481AA06A02F06EFF04E0B0EE0A
:10311000680AA06A02F0D0FE04202072BDEC028B87
:1031200010BD000083F922460123C371818202830E
:1031300083710321017270470223C371C18202832C
:103140000121817104210172704770B50546002488
:1031500000F03EF80B2808D1284600F016F820B9F8
:103160000020A880022028700124204670BD4388DA
:103170000B439343438082880A4382807047C0692F
:10318000406902F019BD007A704740887047806A34
:1031900002F0DABE8188408841EA00407047006A48
:1031A00000687047006A40687047006A806870472E
:1031B000006AC0687047008B7047B0F91400704710
:1031C000B0F916007047C06902F0B3BD808870473F
:1031D00040787047006AB0F91A007047006AD0F86A
:1031E00016007047006AD0F8120070470322C271BF
:1031F00081840914C1840121817104210172704705
:1032000070B504460025FFF7E3FF58B92046FFF7E5
:10321000DDFF38B92046FFF7B8FF18B9012020704C
:10322000A0710546284670BD70B506460024FFF71C
:10323000CFFF38B10C2805D001253046FFF7C6FF77
:1032400010B109E00025F8E73046FFF79EFF18B9F6
:1032500015B1052030700124204670BDC0690021E1
:10326000C160C16170470000014661F30F0044F680
:10327000E61211FB02F244F6E61311FB23F10A44B5
:1032800011444942CA13094BB2F5004F01DB590CF6
:1032900003E019468A4200DB11B261F31F409942F4
:1032A00003D148F2010161F31F4070470080FFFF26
:1032B0002DE9F0410546084600F06EF80FFA85FC4E
:1032C00007B21CFB07F12E14051416FB05F0081AB3
:1032D000C3134FF40040411E4242834201DB0B46C0
:1032E00004E0934201DA134600E01BB2DFF838E055
:1032F00063F30F04934201D16EF30F041CFB05F33B
:1033000016FB07F52B44DB13834204DA934201DA00
:10331000114600E019B2204661F31F40914201D1ED
:103320006EF31F40BDE8F0810180FFFF70B50446D9
:10333000084600F031F814FB00F12214031412FBCC
:1033400003F63144CE13294666F30F0114FB03F351
:1033500012FB00F0C01AC01360F31F41084670BD95
:10336000031E17DD0022B3F5001F01DC802101E000
:103370004FF4005193FBF1F0084400EBD070401083
:10338000884206D0002904D0521CD2B20146062A37
:10339000F0D370470020704710B500F5004189094F
:1033A00011F44074C0F387121649C2F1FF0316D01E
:1033B000B4F5807F1CD0B4F5007F09D0B4F5407F10
:1033C0001FD131F8133031F8121063F31F400DE0B4
:1033D00031F8122031F8131062F31F400FE031F87A
:1033E000122031F81310524262F31F40494206E0A6
:1033F00031F8133031F812105B4263F31F4061F370
:103400000F0010BD7E7200082DE9F047B1F8008072
:1034100004464FF000094E465FEA080045D0206898
:10342000C289424501D209203DE0887884F8210014
:10343000C87884F823000A7984F825204A7984F82A
:1034400027208D1DA17F1044884234D8002717E023
:103450006068B5F800A000EB87015046FFF766FCF6
:1034600094F82300B84201D9022002E05046FFF749
:103470004BFCE168C8557F1C304486B2FFB2AD1CDE
:1034800094F8230094F827100844B842E0D8B11DFE
:103490008845C8D3A8EB0600801E6083287884F88E
:1034A000290010B104E0814602E0204600F0BEF899
:1034B0004846BDE8F0870A20F5E7000070B50446ED
:1034C000C07F94F82210884276D10025E577208BC2
:1034D000C0BB2068092204F114010368984778B33F
:1034E00051496069096801600420208384F82050F4
:1034F00094F8290094F82A10884223D084F82A00EE
:1035000094F8231084F8241094F8270084F82800F5
:1035100094F8212084F8222094F8252084F826208D
:10352000628BA28308448200D4E901100C34FCF7BA
:1035300077FFE07DE17E421874E80310FCF72BFF73
:10354000208BC0B3208BA18B884239D8616901449C
:1035500000200AE0A26852F82020128821F8022BED
:10356000228B921C401C2283C0B294F824208242F9
:10357000F0D894F82610FE2922D294F82000884230
:103580001BD184F82050D0B20EE0228B6169114427
:10359000A26852F8202012680A602269218B125C0E
:1035A000401C11442183C0B294F8281094F82420C0
:1035B00011448142E9D803E033E0401C84F8200044
:1035C000208BA18B88422BD994F82600FE2818D195
:1035D00094F824000EE0228B61691144A26852F82D
:1035E000202012680A602269218B125C401C114461
:1035F0002183C0B294F8281094F824201144814209
:10360000E9D8218B6069084494F82A100180208B46
:103610006169801C82B2206809234668B04725830F
:1036200070BD401CE07770BDDC04002070B5002543
:10363000044680F82950008B60B16169084494F811
:103640002A100180208B6169801C82B220680923C6
:103650004668B04724F8185FA574E571A57270BD7F
:10366000F8B54168044600260A88012322F00700C5
:103670004FF4807CB3EB102F02D1C0F3C406604638
:10368000521E02F0070202EB420505EBC2023F4D5B
:10369000891C05EB8205A2894FF0000E921E97B29D
:1036A000A781616022689289A4F80EE0521E12B2CE
:1036B000382849D00CDC10F0070F17D14FEAE00092
:1036C000072813D2DFE800F014191E38232A33002C
:1036D00060280BD002DC482808D139E004F10E0341
:1036E000682839D0782816D060453BD0022045E0C4
:1036F0000420E081A068037024E091B2204601F02C
:1037000035FF3BE091B2204601F02EFC36E0284622
:10371000FFF78AFD16E0FEF71FFB13E02846FFF7D0
:1037200057FD06280ED12846FFF798FD0AE02846E7
:10373000FFF74EFD0028EAD12846FFF761FD80F033
:1037400001001BE0002019E02846FFF7FEFCF9E726
:103750002846FFF77BFCF5E7A0680090384600F0AC
:1037600037F80BE0022E08D2094850F8265025B150
:10377000A06800903846A84700E00D20E289A168C3
:103780008854E089401CE081F8BD00003C02002024
:103790009404002010B5044801F060FBBDE810401F
:1037A000024802F0A7B9000094030020A4030020FF
:1037B00002484189024802F0A9B9000094030020A0
:1037C000A403002001480068FFF702BD00000020AC
:1037D0000220704770B5194D287800282DD06888D0
:1037E00008B1401E1CE002F07BFFFFF7E1FF144C24
:1037F00004F10C01206882689047606078B120680D
:103800000A2204F108010368984740B12046FFF7F7
:1038100027FF2068E289A16844680A23A0470120A5
:103820006880A88810B1A888401EA880E88810B1D8
:10383000E888401EE88003F07DF870BD9C040020FD
:103840005804002001480068FFF7DABC000000209F
:1038500001480068FFF7E8BC0000002010B5002810
:1038600021D0114C0021217010490160FDF77CFB33
:103870000F48FDF704F90F4800F088FA0E4803F0EE
:10388000DCFB0E4801F0EAFA0D4802F02DF90D4874
:1038900001F0E4FA0C4800F03CFAFFF77BFF03F07C
:1038A0008BFC0120207010BD9C0400203C020020F5
:1038B000E403002014000020100300207003002007
:1038C0008003002048030020580300202DE9F04326
:1038D00091B028216846FCF7D5FD18210AA8FCF70D
:1038E000D1FD39484FF0A041012501604FF48031EE
:1038F00000240561C0E90114447680F820400326C5
:103900002021C661C160C0E90A5480F83040042714
:10391000476104764563FDF71DFF08B172B6FEE707
:10392000CDE902744020CDE908408DF81D40009596
:1039300006968DF81C4001958DF81E400594694649
:1039400021480494FDF78AFB08B172B6FEE74FF0F8
:1039500007090227CDE9009769461B48FDF77EFB62
:1039600008B172B6FEE74FF00608CDE90086694659
:103970001548FDF773FB08B172B6FEE70F94CDE969
:103980000C84CDE90A750E940AA90F48FDF74CFD89
:1039900008B172B6FEE70820CDE90A070AA90A486D
:1039A000FDF742FD08B172B6FEE70AA90C2081E8D6
:1039B00041020548FDF738FD002801D072B6FEE748
:1039C00011B0BDE8F0830000E004002030B587B0FE
:1039D00014216846FCF756FD2048416941F4002156
:1039E0004161416901F400210591416941F480017F
:1039F0004161416901F480010591416941F400315F
:103A00004161416901F400310591416941F480212E
:103A100041614069124D00F480204FF4E05405905C
:103A2000002221462846FEF7F9F84FF40050009096
:103A30004FF4041001900020029069462846FDF7DB
:103A4000DDFF0120CDE90040022002900320039019
:103A500069462846FDF7D2FF07B030BD001002408E
:103A60000008004810B5FEF733FB4FF4FA61B0FBD5
:103A7000F1F0FEF770FE064800220168501EFEF7C6
:103A800039F90448FFF7EAFEBDE8104003F046BBF1
:103A9000D00400200000002010B5012203212620C0
:103AA000FEF728F92620FEF717F90022032110203F
:103AB000FEF720F91020FEF70FF900220221122054
:103AC000FEF718F91220FEF707F901220421182049
:103AD000FEF710F91820FEF7FFF800221146192012
:103AE000FEF708F91920FEF7F7F8002203211C2041
:103AF000FEF700F91C20FEF7EFF800220321282032
:103B0000FEF7F8F8BDE810402820FEF7E5B8000001
:103B100030B595B00024129413941C216846149477
:103B2000FCF7B0FC2C2107A8FCF7ACFC3548344965
:103B3000C0E900142021816041F29411C1604FF46A
:103B4000807101610121C0E90514FEF7E9FF08B1A8
:103B500072B6FEE77025CDE9125412A929481494D3
:103B6000FEF754FE08B172B6FEE76020009040F602
:103B7000CA00CDE901040394049405940022694627
:103B800020480694FEF73AFF08B172B6FEE7042219
:103B900069461C48FEF732FF08B172B6FEE70822FC
:103BA00069461848FEF72AFF08B172B6FEE741F2EF
:103BB0009310CDE900500C2269461248FEF71EFF13
:103BC00008B172B6FEE74FF4006007904010CDE9EF
:103BD00008040A940B9480030C94CDE90D40032053
:103BE000CDE90F4007A907481194FEF7CDFD08B1B4
:103BF00072B6FEE70348FEF7D7FE15B030BD0000F1
:103C0000002C01403005002010B58CB024216846FE
:103C1000FCF738FC0024164809940A944FF08041C0
:103C20000B94C0E9001443F6FF71C0E9024104613E
:103C300084610320CDE900040120CDE902040921BB
:103C40000491CDE90540CDE9074169460848FEF7F2
:103C500013FE08B172B6FEE7099409A904480B9453
:103C6000FEF7D4FD002801D072B6FEE70CB010BDFF
:103C70007C0500200C4810B50A4901604FF4E111A1
:103C80004160002181600C22C160C0E904128161A1
:103C9000C16101624162FEF7A7FF002801D072B640
:103CA000FEE710BD00440040C80500200278FAB9C4
:103CB000A1F57F42FF3A04D04288891A02EB212104
:103CC0004180B0F90E1042890029418805DD9142FA
:103CD00005D8828991420BD306E0914201D2082196
:103CE00003E08289914203D80189018188B270473B
:103CF0000021FAE7017811B1C08800B2704741880D
:103D000002698A1AB0F90E10808A514300EB2140F3
:103D1000F3E7017819B100210181818807E0B0F94A
:103D20000E10002901DD002101E04FF6FF714180F6
:103D3000704770B5B0F922500446ADB1A06A081AB8
:103D4000454394F82600A1620541204600F04EF854
:103D5000B4F914102844814203DBB4F916108142EF
:103D600000DD084600B270BD00F040F8FAE7B0F997
:103D700022007047C08C7047B0F906007047C08BB6
:103D80007047B0F904007047808B704701888180CC
:103D90004188C180018C418400218160816270472B
:103DA00081607047418470470122C1848A408284C7
:103DB0007047C180704770B501248C40C1830546AF
:103DC0004483C4EBC43100F00FF8A4EBC43128469F
:103DD00000F008F870BD81807047012281838A401D
:103DE0000283704701617047C1607047F0B5B0F958
:103DF00004600025B0F91430B0F91640B0F906207F
:103E00004E4352B187684A43B91808D5002F0BDDDD
:103E1000002A09DD6FF0004106E000210DE0002FCF
:103E200002DA002A00DA0F49C2688A4202DB02691C
:103E30008A4202DD1146826000E08160827F077F56
:103E400041FA02F23E4132449A4202DD9D1A1A467C
:103E500003E0A24201DAA51A22462944816010B289
:103E6000F0BD00000100008000210A4604E0036864
:103E700023F81120491CC9B2437A8B42F7D842601B
:103E8000827202737047027A012191404172FFF7FA
:103E9000EBBF30B5837A0268456832F813402C1BBB
:103EA000446022F813104368827A1944521C41601E
:103EB000D1B28172427A914203D1002181720121F3
:103EC000017330BD82689168D2F8122011FB02F3B1
:103ED00011FB3231CA1701EB1241B0F90020C2EBDD
:103EE0002141CB1701EB1371091102FA81F1018015
:103EF000704710B50446C06803F084F800EE100A5D
:103F0000B4F90000F8EE400A00EE100AB8EEC00A5C
:103F100020EE800AD4ED010A20EE200A10BD10B573
:103F20000446002079B101290CD1B4F8601041B1E8
:103F3000491E0904090CA4F8601003D1E168204669
:103F40008847012010BD204600F042F9F6E710B581
:103F5000044600F03DF9012084F8820004F1780065
:103F600010BD0146002091F881300246012B02D19C
:103F7000022081F8812091F88030012B03D140F09C
:103F8000400081F8802091F88230012B03D140F469
:103F9000806081F8822070474A6C42F480624A64F3
:103FA000012180F8811080F88310783070472DE966
:103FB000F041B0F84E200BB253430A14B0F8701021
:103FC000DE174A4352005242D517D41845EB060774
:103FD0007F104FEA3404D71A65EB06035B104FEAF3
:103FE00037034FEA91014FF002064FF001074FF0FF
:103FF000000C002C69DA002B20DA042280F87A20E9
:10400000E21AD51702EB953201EBA241DA1703EB66
:10401000D23201EB6243E21704EBD232A1EB6244ED
:1040200090F88620012A04D0A0F85840A0F85A1031
:104030008CE0A0F85870A0F85AC021E0002A22DCD9
:10404000032480F87A40D41A4FEAE47E04EB9E34CD
:1040500001EBA441DC1703EBD43301EB634302EB28
:10406000D532A3EB624490F88620012A04D0A0F850
:104070005840A0F85A3020E0A0F858C0A0F85A7074
:10408000A0F85C608AE0A31A4FEAE37E03EB9E335C
:1040900001EBA341E31704EBD333A1EB634402EB41
:1040A000D53280F87A6004EB624390F88620012ACA
:1040B00006D0A0F85830A0F85A40A0F85C106DE087
:1040C000A0F858C0A0F85A6020E0002B21DBE21ACB
:1040D000D51702EB953201EBA241DA1703EBD2328E
:1040E00001EB6243E21704EBD23280F87A70A1EB65
:1040F000624490F88620012A04D0A0F85830A0F835
:104100005A1049E0A0F85860A0F85AC0A0F85C70B6
:1041100044E0002A22DC052380F87A30A31A4FEA13
:10412000E37E03EB9E3301EBA341E31704EBD333B0
:10413000A1EB634402EBD53204EB624390F8862096
:10414000012A06D0A0F85810A0F85A40A0F85C3018
:1041500024E0A0F85870A0F85A6036E0D41A4FEA6C
:10416000E47E04EB9E3401EBA441DC1703EBD43373
:1041700001EB634302EBD53280F87AC0A3EB6244D3
:1041800090F87D20012A1CD090F88620012A18D0B2
:10419000A0F85810A0F85A30A0F85C40002900DCC4
:1041A0000021A0F85010002B00DC0023A0F85230B2
:1041B000002C00DC0024A0F854404169BDE8F04127
:1041C0000847A0F85860A0F85A70A0F85CC0E5E76E
:1041D000416808478168084708B58168C1F30172E2
:1041E0002249012A12D0826822F0405282608268FD
:1041F0000A4042F0805282601D4A1E4B1268B2FB98
:10420000F3F200E0521E0092002AFBD182681A4BA2
:104210001A4042F0004282608268D20FFCD101E075
:10422000521C8260026812F0010F826802EA0102E9
:10423000F6D042F00802826082680A4042F0200212
:1042400082608268C2F34012002AFAD1C26C22F066
:10425000C00242F04002C26482680A4042F0080193
:104260008160C16841F40011C16008BDC0FFFF7FDB
:10427000D8040020400D0300C0FFFF3F2DE9FC479C
:104280000446D0F89C00002640F25557456894F843
:104290007F004FF00408002862D120680090606918
:1042A0000190C4F88860C4F88C60C4F8906084F809
:1042B0009A60286AB843286272B640482060404835
:1042C00060614020A4F8980084F89B8084F87A808C
:1042D00062B6204600F02AFCD4F89C0004F19A0350
:1042E00004F1560190F83C209A468946284602F08F
:1042F000A3FF204600F0FBFB84F89A6072B63148B9
:10430000206084F89B6084F87A6062B6204600F0F2
:104310000DFCD4F89C005346494690F83C202846B2
:1043200002F08AFF204600F0E2FBD4F88800000982
:10433000C4F88800D4F88C000009C4F88C00D4F8C4
:1043400090000009C4F89000B4F8560010B901209C
:1043500084F87F0072B6009820600198606162B6B0
:1043600001212846FEF7D0FD10212846FEF7CCFD9E
:104370004FF4807949462846FEF7C6FD34F8940F7D
:104380004008686334F81A094008A863608B400845
:10439000E86301212846FEF7EBFD10212846FEF7D1
:1043A000E7FD49462846FEF7E3FD286A38432862C0
:1043B00084F800806672BDE8FC870000C5440008F0
:1043C000EF4900080145000850F8882F0A6042684C
:1043D0004A60806888607047F0B5D0F89C3090F8EB
:1043E0007AC05A681B6853F8804F5F68536823F09F
:1043F00070035360324D6A1C6E42530CBCF1060FC1
:1044000052D2DFE80CF0183535030318D0F888C015
:10441000ACEB0404AC4201DC0A8004E0B44201DBF2
:104420000B8000E00C80D0F88C40E41BAC4238DDFF
:10443000B44232DA37E0D0F88CC0ACEB0404AC42C2
:1044400001DC4A8004E0B44201DB4B8000E04C8098
:10445000D0F890403C1BB1F90270E41BB44201DB80
:104460000B8021E0AC4201DC0A801DE00C801BE0E7
:10447000D0F888C0ACEB0404AC4201DC0A8004E054
:10448000B44201DB0B8000E00C80D0F890403C1B74
:10449000B1F90070E41BB44201DB4B8004E0AC4294
:1044A00001DC4A8000E04C800A8820F8622F4A88AC
:1044B00042800A884988114449428180F0BD000049
:1044C0000080FFFF30B5D0F89C305A681B6853F865
:1044D000804F5B68556825F07005556090F89A200C
:1044E000102A09D250F8882F2244026042681A44E8
:1044F0004260827C521C827400200880488030BD5B
:1045000010B5D0F89C305A681B68D3F884305468D2
:1045100024F07004546090F89A20102A06D250F8C3
:10452000902F1A440260827A521C82720020088006
:10453000488010BD2DE9F05F8146D0F89C00D0E99D
:10454000004AD0E90261D0E904756068884620F02D
:104550000400606004202060606820F0200060603B
:10456000202020603548824504D13548C16841F09B
:104570000101C160DFF8CCB0B6B1D9F89C0090F869
:104580003D10012908D0316801F07001402903D1A4
:10459000018F584600F060FA306840F0010030604A
:1045A000306840F000403060B8F100000AD0006888
:1045B00040F00101C8F80010D8F8000040F00041B8
:1045C000C8F800103FB1386840F001003860386822
:1045D00040F000403860B5B1D9F89C0090F8401028
:1045E000012908D0296801F07001402903D1418FC9
:1045F000584600F031FA286840F001002860286829
:1046000040F000402860A0684FF0400510F0010F16
:1046100007D12046FFF7E0FD2560606840F04000CC
:1046200060604946504600F0E6FAA9F898502560C7
:10463000606840F040006060BDE8F09F002C0140E1
:10464000002004E00100100270B50546D0F89C007F
:10465000446895F87E00012868D160220121204637
:10466000FEF7BAFC206A40F00100206295F87B005A
:10467000012802D0022804D007E0206A40F004009C
:1046800002E0206A20F004002062B5F8940040089F
:104690006063602210212046FEF79EFC206A40F0F5
:1046A0001000206295F87B00012802D0022804D077
:1046B00007E0206A40F0400002E0206A20F040005D
:1046C0002062B5F894004008A06360224FF4807126
:1046D0002046FEF781FC206A40F48070206295F845
:1046E0007B00012802D0022804D007E0206A40F4B1
:1046F000806002E0206A20F480602062B5F89400B7
:104700004008E063D5F89C000068C16821F480117E
:10471000C16072B606482860064828610648A8604D
:104720000648686062B6002085F87E0070BD000013
:10473000D9430008134D00082D4B0008EF4A00082C
:1047400070B50546D0F89C00446895F87E00E8BB3B
:10475000602201212046FEF73FFC206A40F0010064
:104760002062206A20F0040020620020606395F837
:104770007B00012802D002280DD019E0102211463A
:104780002046FEF729FC206A20F010002062206AF3
:1047900040F040000BE0202210212046FEF71CFCD8
:1047A000206A40F010002062206A20F04000206261
:1047B00070224FF480712046FEF70EFC206A20F430
:1047C00080702062206A20F4806000E000E02062B7
:1047D00072B606482860064828610648A860064860
:1047E000686062B6012085F87E0070BD3948000817
:1047F000074900086D480008EF4A00080246D0F853
:104800009C004368B2F894004843010CA2F8501091
:10481000032082F87A0088B25863586810F070005C
:1048200000D00120B2F85610012903D10120002147
:10483000A2F856107047000010B5D0F89C305A68A6
:104840001B68546824F070045460D0F88C00D3F8CE
:104850008420801A044A904202DD520C904200DB10
:1048600010460880488010BD0180FFFF70B50446E7
:10487000D0F89C00012145682846FEF745FB4FF41F
:10488000805631462846FEF73FFB01206863B4F8A6
:104890009400401F286401212846FEF769FB314639
:1048A0002846FEF765FB686C40F480606864686CBD
:1048B00040F40040686494F87B0002281DD1286A07
:1048C00040F2555108420CD0E16BB4F848008861C1
:1048D000206CB4F84A108161606CB4F84C108162AD
:1048E0000BE0E06BB4F848108162216CB4F84A0028
:1048F0008862616CB4F84C008862032104F87A1F66
:104900000120A07270BD70B50446D0F89C00012152
:1049100045682846FEF7F8FA00206863012128461A
:10492000FEF726FB686C40F40040686494F87B0056
:10493000022809D154F83C1FA08988616068E18988
:104940008162A068218A816270BD2DE9F041044630
:10495000D0F89C00012145682846FEF7D5FA1021C1
:104960002846FEF7D1FA4FF4807739462846FEF7FD
:10497000CBFA3E0131462846FEF7C6FA00206863AE
:10498000A863E863B4F89400401F28640121284616
:10499000FEF7EEFA10212846FEF7EAFA39462846D5
:1049A000FEF7E6FA31462846FEF7E2FA686C40F474
:1049B00080606864686C40F40040686494F87B0030
:1049C00002280BD1E06BB4F848108161206CB4F878
:1049D0004A108161606CB4F84C108161042084F845
:1049E0007A00286A40F480502862BDE8F08190F88F
:1049F0009B1080F87A10B0F89410491E89B200F02C
:104A0000C2B9F0B4D0F89C50B0F89420B0F8581067
:104A10002C8B531A9BB2A34204D9042180F87A103C
:104A200091B214E0B0F85A608E1BB6B2B6EB430FE9
:104A300002D96A8B891A0BE0214489B28A4208D8CC
:104A40008022A0F89820B0F89420C1EB4201491EC2
:104A500089B2F0BC00F097B930B54FF4700494FA05
:104A6000A4F41A4A00F47003B4FA84F4E34002EBAD
:104A700083039C684FF6F075AC430C439C6051680F
:104A800000F001031943516000F01001012088403B
:104A90001168104B30EA01040D4908D01468044332
:104AA00014600868B0FBF3F0C0EB00100BE008687E
:104AB000B0FBF3F000EB4000800000E0401E002857
:104AC000FCD130BD401E0028FCD130BD0074004038
:104AD000D804002080841E000A6840F8882F4A68A5
:104AE000426089688160012100F8091C7047D0F894
:104AF0009C100022496880F8842080F87C204A6C51
:104B000022F400424A6490F8831001290DD090F8F5
:104B10007B10022909D150F83C1F82898A624168C2
:104B2000C2898A628168008A886270472DE9F041F3
:104B30000446D0F89C000021456804F87C1F012140
:104B40002846FEF7E1F910212846FEF7DDF94FF47B
:104B5000807631462846FEF7D7F937013946284690
:104B6000FEF7D2F9208B40086863208B4008A863C9
:104B7000208B4008E863208B401F286401212846D1
:104B8000FEF7F6F910212846FEF7F2F931462846DD
:104B9000FEF7EEF939462846FEF7EAF9686C40F46C
:104BA00080606864686C40F40040686414F8010C2C
:104BB0007C3C02281AD1286A40F255510842B4F8C8
:104BC0004810E06B09D08161206CB4F84A10816113
:104BD000606CB4F84C10816108E08162206CB4F81C
:104BE0004A108162606CB4F84C108162012084F834
:104BF0008400BDE8F08170B5044600680D464FF4AE
:104C00007A7620F001002060606820F0700040F0AB
:104C10002000606001212046FEF7AAF910212046FD
:104C2000FEF7A6F94FF480712046FEF7A1F94FF484
:104C300080512046FEF79CF9606940F001006061F8
:104C4000D5F89C0090F84110022903D095F878100F
:104C500089B124E090F84210012913D190F83C006A
:104C600003280FD101202063606940F001006061DA
:104C70000320206306E090F83C00012802D00328BE
:104C800005D00CE0B5F89400401E606207E00120FA
:104C90002063606940F00100606103202063606868
:104CA00040F0700060606FF0800020616FF48070F1
:104CB00001E02061761E2169C1F3002109B1002EB7
:104CC000F7D1E06840F08000E060206A40F2555182
:104CD000084320626FF001002061E06840F00100AD
:104CE000E06070BD30B5D0F89C2010F87A4F2025D8
:104CF000D2E9001305EB8404125930F81E4F224309
:104D0000CA645A6842F070025A60402120F82019A3
:104D100030BD2DE9F0410446D0F89C000D4601213C
:104D2000466884F87C103046FEF7EEF810213046D5
:104D3000FEF7EAF84FF4807739463046FEF7E4F89C
:104D40007563B563F56301213046FEF711F9102153
:104D50003046FEF70DF939463046FEF709F9706C1A
:104D600040F40040706494F87B00022809D154F8A4
:104D70003C0FA18981616068E1898161A068218A15
:104D80008161BDE8F081D0F89C2030F8503F526836
:104D90005363438893638088D0631164506810F034
:104DA000700000D00120704770B5174D687800285A
:104DB00029D0164C2878022154F82030187A092876
:104DC00001FA00F141EA806100EB400002D841EABB
:104DD000005205E00E4A02EB0050014341F0007220
:104DE00006211868FEF714F8297854F821000068A5
:104DF000026C0422026054F8210000688168054AB0
:104E00001140091D816070BDA40400209C18002081
:104E1000000020FEC0FFFF7F70B50E4C60780028B8
:104E200017D00D4D207855F8200000680168C1F3B7
:104E3000800129B1FDF7E7FF217855F8211048815D
:104E400061782078491E884201D1002000E0401C92
:104E5000207070BDA40400209C180020F0B5394AD1
:104E60000123517804296AD2374C44F82100017398
:104E7000491C517001688A6812F0010F1FD14A68FD
:104E800022F004024A60016804220A6001684A684C
:104E900022F020024A60016820220A6001688A68C4
:104EA0002A4C224042F000428A6001688A68D20F90
:104EB000FCD1274C01680A6812F0010F11D00A6B6F
:104EC00022F00F020A63017A0222092902FA01F292
:104ED000046842EA816201EB410107D842EA0151CC
:104EE0000AE08A682240521C8A60E3E7194D05EB0C
:104EF00001510A4342F000714FF00075426895FA83
:104F0000A5F501F00070B5FA85F5E84004EB8000E6
:104F100044694FF0F87595FAA5F601F0F871B6FA04
:104F200086F621FA06F60727B74095FAA5F5B5FAF1
:104F300085F5E940BC438A401443446100E0002306
:104F40001846F0BDA40400209C180020C0FFFF3FBD
:104F5000C0FFFF7F000020FE002181604160C16032
:104F600001610121416170472DE9FF4104460120A3
:104F7000D4E9015290460022184BADF804200FB23C
:104F8000D3E90213A689CDE90213E28122E0284683
:104F9000B61E0288AD1CC2F3C20122F00700C90090
:104FA00002F00702B6B2012A03D9012004B0BDE81D
:104FB000F08102AB009753F822C001AB4246E047B4
:104FC0000028F3D1BDF80410E28988440A44791A14
:104FD000E2810FB2002EDAD1E8E70000CC740008BD
:104FE00030B41C4603460020029D18291ED004DC64
:104FF000082909D0102904D10DE020291BD0282927
:105000002BD0072030BC7047002D02DD0520012188
:1050100029E00820F6E7022DFBDBB3F5656F03D02E
:10502000B3F5696F00D0052002211CE0042DF0DBF0
:105030000520042117E01146202B04D0602B06D058
:10504000052000210FE02B4622460F4802E00F48C2
:105050002B46224630BC00F071BA911C282B04D09C
:1050600005201188891C2180CCE70A231380ABB26C
:105070000C2B01D20820F4E7054B1D680D605D681C
:105080004D601B890B81ECE702750008E374000892
:10509000167500082DE9F047984614460025F74E8E
:1050A000F74A089B2F464FF00A094FF0040A1829C7
:1050B0006FD004DC08290BD0102905D128E0F14A73
:1050C000202967D0282973D007252846BDE8F08716
:1050D000002B6EDD48280AD088280CD0B0F5A96FC7
:1050E0000ED0B0F5B16F0FD00525012131E130466A
:1050F000FEF76EF802E03046FEF745F82070F4E760
:10510000E14800F01EFFF9E7DF4800F017FFF5E780
:10511000022B4EDBB0F5256F75D04BDCB0F5BA6FC6
:1051200072D020DCB0F5047F6FD00FDCB0F5887F43
:105130006CD004DC902879D0D02869D17CE0B0F51F
:10514000C87F7FD0B0F5E87F62D17DE0B0F5247FE5
:105150006FD0B0F5347F6DD0B0F5447F7FD0B0F51F
:10516000B26F55D17DE0B0F5116F6FD013DCB0F5A3
:10517000056F6CD006DCB0F5FA6F7CD0B0F5016F2E
:1051800046D17CE0B0F5096F6FD0B0F50D6F3FD11F
:1051900083E0E1E015E1B0F5156F67D0B0F5196F68
:1051A00071D0B0F51D6F6FD0B0F5216F30D18CE0AC
:1051B0001BE104E141F2D042811A904271D028DC17
:1051C00041F29032A0EB020190426BD011DCB0F5BD
:1051D000316F68D006DCB0F5296F71D0B0F52D6F56
:1051E00016D182E0B0F5656F02D0B0F5696F0FD1CE
:1051F000AEE0402971D0802970D0C0296FD0B1F5C0
:10520000807F05D187E064E031E022E018E00DE026
:1052100072E011F03F0F6FD188110A286CD2DFE8DD
:1052200000F0967E80828486888A8E92974865E018
:1052300008E010E011E012E0944863E0208087E08D
:10524000924863E0924859E091485BE02CE01CE012
:1052500011E08F485AE08F4850E08E4852E08D4868
:1052600054E0104601F0CEFEE8E712E020E08A4864
:10527000FEF740FDE2E73046FDF791FFDEE73046FE
:10528000FDF78DFF2FE017E01BE03046FDF78AFFAA
:10529000D4E73046FDF786FF25E03046FDF785FF71
:1052A000CCE73AE029E023E03046FDF77EFF1AE044
:1052B0003046FDF77DFFC1E73046FDF779FF12E08C
:1052C0000EE03046FDF78EFFB8E73046FDF78AFF67
:1052D00009E03046FDF782FFB0E712E015E018E084
:1052E0003046FDF77BFF0014A8E76C488088A5E7EF
:1052F0006A4800F066FCA1E729E06948FEF741FD35
:105300009CE76748FEF738FD98E76548FEF72FFDF4
:1053100094E75E4810E05D4812E05C4814E05D48A8
:105320000AE05C480CE05B480EE0594804E058484D
:1053300006E0574808E05A48FEF726FD7EE7584841
:10534000FEF71DFD7AE75648FEF714FD76E70525C2
:105350000221A8F80010B8E6042B30DB98281AD0F8
:1053600004DC18280DD0582807D10EE0A0F52060E5
:10537000583819D0B0F5885F1AD00525A8F800A0D4
:10538000A3E63046FDF706FF03E03046FDF7F7FEE3
:1053900004E02060F2E73046FDF715FFC0EB001097
:1053A000810091FBF9F0F4E73046FDF7F0FE03E0F1
:1053B0003C480068FEF79DFD84ED000ADEE7082505
:1053C00083E62146A02805D0E02807D00525A8F8C7
:1053D00000707AE634484246006802E010684246AF
:1053E000243000F0ABF805466FE62746A41CB0F564
:1053F000F47F74D013DC99B24FF0100C4FF00E0311
:10540000E82827D004DC68281DD0A8280DD112E098
:10541000B0F5947F25D0B0F5D47F06D14CE0B0F53F
:105420005A7F69D0B0F56A7F76D005253888801C10
:10543000A8F8000049E6A7F800C0122915D31B48B8
:105440001022016815E03C2038803E290DD31168F8
:105450003C220EE03B80102907D315480E2201683C
:1054600007E00C2038800E2901D20825DEE711491B
:1054700010222046FAF78FFFD8E730E03C020020E8
:1054800080030020C4040020C40000201400002079
:10549000400000206C000020580300206C02002017
:1054A0009800002034020020BC040020C804002022
:1054B000C0040020A704002004F1040A3046FDF7D0
:1054C0007CFEC0EB0010810091FBF9F020603046BB
:1054D000FDF771FEAAF8000006203880A6E704F167
:1054E0000209A7F800A03046FDF76AFE208030468A
:1054F000FDF761FE01460BE004F10209A7F800A0E8
:105500003046FDF755FE20803046FDF751FE011470
:10551000A9F800108AE7FFE708203880064800F065
:1055200026FD10EE106A044800F01EFD10EE100A71
:10553000266060607AE70000C400002070B5002497
:10554000012515809DB205E001F8013B13885B1C25
:105550001380401C90F9003023B11688AE42F3D37B
:10556000062401E000200870204670BD2DE9FF5F91
:1055700005468B46D5E901010024284BB5F90C20DE
:10558000ADF80440D3E90063CDE902638946A04643
:105590002646EC8133E0921E17B2028800F1020A1F
:1055A000C2F3C201761C22F00700C90002F0070214
:1055B000F6B2012A01D901242BE002AB009753F87F
:1055C00022C001AB5246E0470146BDF804003A1A3A
:1055D00012B25044012E00D1AAB1BBF1000F14D079
:1055E00009F8011BEB895B1CEB81ABF101031FFA8E
:1055F00083FB21B1012407290BD00A2909D0002AF5
:10560000C9DC24B105E00C46FBE7082401E0A5F85D
:105610000E8004B02046BDE8F09F0000CC74000866
:1056200070B51D460024049B264618292DD004DCA5
:1056300008290AD0102904D10EE020292CD02829CD
:1056400031D007242E80204670BD482802D0052482
:10565000012016E00424FBE7B0F5656F10D006DCEE
:10566000B0F5B26F0FD0B0F5BA6F08D10BE0B0F55E
:10567000696F05D000F59560B0F5005F03D0052493
:1056800002202880DFE70424FAE7182802D0052446
:105690000420F6E70424FBE71046114604242A46BA
:1056A000FFF74CFFCFE711889AB2891C89B2298095
:1056B000914202D92E800A24C5E7282807D06828FD
:1056C00005D0A82803D0E82801D00524BBE704248E
:1056D000B9E700002DE9F0411D460024E64E3C23C9
:1056E000069FA446182973D004DC08290CD0102981
:1056F00004D12FE020296CD028296BD00724A5F8ED
:1057000000C02046BDE8F08148280AD088280AD089
:10571000B0F5A96F05D0B0F5B16F02D00524012016
:10572000C0E00424FBE7107804280AD00328F6D14F
:105730003046FDF748FD014600223046FDF7F4FCF7
:10574000EDE73046FDF746FD014600223046FDF705
:10575000F3FCE4E71788B0F5256F29D04FDCB0F5EE
:10576000F26F25D025DCB0F5047F74D00FDCB0F5E6
:10577000887F71D004DC90286FD0D0286ED196E05D
:10578000B0F5C87F6BD0B0F5E87F67D19AE0B0F58F
:10579000447F71D006DCB0F5247F6ED0B0F5347F45
:1057A0007ED19EE0B0F5B26F02D0B0F5BA6F77D17E
:1057B0009FE0B0F5116F0AD014DCB0F5056F06D08C
:1057C00009DCB0F5FA6F02D0B0F5016F68D190E056
:1057D000D3E0EAE0F1E0B0F5096F02D0B0F50D6F6B
:1057E0005ED186E0B0F5156F71D0B0F5196F6FD04E
:1057F000B0F51D6F7DD0B0F5216F51D179E041F248
:10580000D043C11A4FF48072984270D028DC41F224
:105810009033A0EB030198427DD011DCB0F5316FDD
:1058200067D006DCB0F5296F63D0B0F52D6F37D1A6
:105830005FE0B0F5656F34D0B0F5696F30D130E01E
:1058400040296BD080296CD0C0296DD0914227D1DE
:1058500039468A4875E03CE02CE025E020E02CE069
:10586000B1F5C07F7DD00FDCC0296FD006DC4029A8
:1058700060D0802914D162E036E02FE091426AD0F6
:10588000B1F5A07F0CD169E0B1F5E07F6CD0B1F546
:10589000007F6CD0B1F5107F6CD0B1F5D16F28D0FE
:1058A0000524022028802CE739B2744807E039B279
:1058B000724809E039B271480DE039B27048FEF71C
:1058C0008AFAEEE739B26E48FEF773FAE9E712E0BA
:1058D00017E039B26A48FEF765FAE2E739B269487B
:1058E000EDE739B26748EFE739B26648F3E71EE003
:1058F00011E00424D5E73046FDF75AFC67F30F00AA
:1059000004E03046FDF754FC67F31F400146304683
:10591000FDF76CFCC5E739B25B48D0E739B25A48AD
:10592000D2E739B25848D6E73946544804E03946F8
:1059300052480DE039465348FEF74FFAB1E7394671
:105940005048FEF738FAACE70BE0FFE739464D4820
:10595000FEF72AFAA5E739464948EDE739464848AF
:10596000EFE739464648F3E739464748E4E7394622
:105970004548E6E739464448EAE71168182806D062
:10598000582804D0982804D0052404208AE7042449
:10599000FBE708B200EB8000400090FBF3F001B29F
:1059A00000223046FDF7C0FBEFE710461146042405
:1059B0003B462A46FFF7C2FDA3E61188891C1FFA61
:1059C00081FE911CBAB2A5F800E0964503D9A5F86E
:1059D00000C00A2495E6B0F5D47F19D008DC282849
:1059E00014D0682812D0A82810D0E8280CD10DE0D7
:1059F000B0F5F47F18D0B0F55A7F2CD0B0F56A7F9F
:105A000019D0B0F5A56F31D005247AE6042478E6E4
:105A100008688A8800EB8000400090FBF3F001B238
:105A20003046FDF781FB6CE608888A8801B2304673
:105A3000FDF782FB65E608884A8840EA02408A88CA
:105A4000C98800EE100A42EA014100EE901A304681
:105A5000FDF738FB55E60A88498862F30F0061F3C9
:105A60001F4001463046FDF7C1FB4AE60748FDF7F7
:105A7000CBFC044645E600003C0200201400002058
:105A8000400000206C0000209800002068040020E6
:105A9000024610B50020A1F57F43FF3B21D0D088FE
:105AA000091A00EB212080B2D08051899389994254
:105AB00005D1884216D8118A884203D30FE0148A90
:105AC000A04201D204200BE0947B24B1884206D985
:105AD0000020907306E0984204D2012090730020C9
